:020000040800F2
:10000000980E0020790200086D4100089D39000813
:100010005141000861050008A95F000800000000C8
:100020000000000000000000000000004B47000836
:100030004709000800000000D1440008F7520008FA
:10004000930200089302000893020008930200083C
:10005000930200089302000893020008930200082C
:100060009302000893020008930200088108000828
:100070008D08000893020008990800089302000800
:100080009302000800000000A90400089302000881
:1000900093020008930200089302000893020008EC
:1000A00093020008755300089302000893020008A9
:1000B000815300089302000893020008930200088D
:1000C00093020008930200089302000893020008BC
:1000D000930200089D5F0008930200089302000845
:1000E000930200089302000893020008930200089C
:1000F0009302000893020008930200080000000029
:10010000000000009302000800000000ED45000818
:100110009302000800000000930200089302000808
:10012000930200089302000893020008930200085B
:100130009302000800000000000000009302000885
:100140009302000893020008000000000000000075
:10015000000000000000000000000000000000009F
:1001600000000000000000000000000093020008F2
:1001700093020008000000000000000000000000E2
:1001800000000000930200080000000000000000D2
:10019000000000000000000000000000000000005F
:1001A0000000000000000000930200089302000815
:1001B0009302000893020008930200080000000068
:1001C0000000000093020008000000000000000092
:1001D000930200089302000800F002F800F03CF8D7
:1001E0000AA090E8000C82448344AAF10107DA4592
:1001F00001D100F031F8AFF2090EBAE80F0013F0A8
:10020000010F18BFFB1A43F001031847547B00008D
:10021000747B0000103A24BF78C878C1FAD852071E
:1002200024BF30C830C144BF04680C607047000070
:100230000023002400250026103A28BF78C1FBD8EF
:10024000520728BF30C148BF0B6070471FB506F08A
:1002500024FD1FBD10B510BD00F0F3F81146FFF7E7
:10026000F5FF06F0CDF800F011F903B4FFF7F2FF47
:1002700003BC06F05FF800000948804709480047C2
:10028000FEE7FEE7FEE7FEE7FEE7FEE7FEE7FEE746
:10029000FEE7FEE704480549054A064B70470000A3
:1002A00065530008D901000898080020980E002026
:1002B000980A0020980A0020704753EA020C00F0C8
:1002C00069802DE9F04B4FF00006002B1FBFB3FAF9
:1002D00083F503FA05F424FA05F65E4012BF1643CF
:1002E000B2FA82F502FA05F4C5F120051EBF22FA22
:1002F00005FC44EA0C04203556EA044C4FEA144449
:1003000018BF641C4FF000084FF00009904271EBD9
:10031000030C39D3002919BFB1FA81F701FA07F6A6
:10032000B0FA80F700FA07F6C7F120071EBF20FADF
:1003300007FC46EA0C062037B6FBF4FCA7EB0507E2
:10034000103F07F01F0BCBF120060CFA0BFB2CFA29
:1003500006F644BFB3460026202FA4BF5E464FF0EA
:10036000000B5BEA060C08BF4FF0010B19EB0B0901
:10037000ABFB027C48EB0608C01B06FB02CC0BFB68
:1003800003CC71EB0C01C1E70B46024641464846DF
:10039000BDE8F08B13B54FF000004FF00001AFF354
:1003A0000080BDE81C4070474FF000020429C0F0F7
:1003B000128010F0030C00F01B80CCF1040CBCF197
:1003C000020F18BF00F8012BA8BF20F8022BA1EBE9
:1003D0000C0100F00DB85FEAC17C24BF00F8012BCE
:1003E00000F8012B48BF00F8012B70474FF00002C6
:1003F00000B5134694469646203922BFA0E80C501B
:10040000A0E80C50B1F12001BFF4F7AF090728BFF5
:10041000A0E80C5048BF0CC05DF804EB890028BF71
:1004200040F8042B08BF704748BF20F8022B11F09A
:10043000804F18BF00F8012B704770477047704716
:100440007047754600F02CF8AE46050069465346E5
:1004500020F00700854618B020B5FFF71BFFBDE868
:1004600020404FF000064FF000074FF000084FF01B
:10047000000B21F00701AC46ACE8C009ACE8C009AC
:10048000ACE8C009ACE8C0098D46704710B5044619
:10049000AFF300802046BDE81040FFF7E6BE000045
:1004A0000048704738080020014800F0FFBD0000F8
:1004B000D0040020F8B50446002000902068816830
:1004C00011F0010F41D18168214A11422ED181687A
:1004D000D5432940491C81601E48806800F0E070C7
:1004E00000020DD51C481D490068B0FBF1F0401C0E
:1004F00000EB4000800000E0401E00900028FBD18F
:1005000001F022FB06461BE0816811F0010F03D1C8
:1005100081682940491C816001F016FB801B02287C
:100520000ED920680068C043C00709D0E06D40F0D4
:100530001000E065206E40F0010020660120F8BD4B
:1005400020680168C943C907DED10020F8BD00005A
:100550003F0000800003005018000020400D030001
:10056000FEE7000010B504462DED028B007804284C
:1005700009D29FED1E0A84EDB70A84EDB80A84ED16
:10058000DE0A84EDDF0A94EDDC0AD4EDA50A94EDD1
:10059000DF1A04F1E00060EE600A60EE818AD4EDBB
:1005A000A40A20EE201AD4EDDE0A21EE208A94ED72
:1005B000A71A00EE018A94EDB70A05F024F9D4EDEC
:1005C000DF0A94EDB80A04F5A87005F01CF994ED63
:1005D000400A30EE280A84EDB90A94ED5C0A30EE48
:1005E000080A84EDBA0ABDEC028B10BD00000000C1
:1005F00070B5364D04462DED028B6878401CC0B2B4
:1006000068702178042907D29FED310A84EDB60A7B
:100610009FED300B84EDD80B94F8681211FB01F1BB
:1006200081420FD894EDD80B51EC100B05F034FF3C
:1006300000EE900A94EDB60A04F5FC7005F0E3F8BC
:100640000020687094F868026978B1FBF0F200FB52
:10065000121038B9D4EDD60A94ED860A04F5E0708C
:1006600005F01CF994EDDC0AD4EDA50A94EDDF1A2F
:1006700004F1E00060EE600A60EE818AD4EDA40A25
:1006800020EE201AD4EDDE0A21EE208A94EDA71A7E
:1006900000EE018A94EDB70A05F0B5F8D4EDDF0A53
:1006A00094ED720A04F5A87005F0ADF894ED400AD7
:1006B00030EE280A84EDB90A94ED5C0A30EE080A9F
:1006C00084EDBA0ABDEC028B70BD00000000002072
:1006D00000000000000000000000000070B5294D7F
:1006E00004462DED028B2878401CC0B2287021787A
:1006F000042905D29FED240A84EDB50A84EDD60ABB
:1007000094F86812814209D8D4EDD60A94EDB50A5E
:1007100004F5E07005F0C2F80020287094EDDC0AC2
:10072000D4EDA50A94EDDF1A04F1E00060EE600A52
:1007300060EE818AD4EDA40A20EE201AD4EDDE0A00
:1007400021EE208A94EDA71A00EE018A94EDB70AF3
:1007500005F059F8D4EDDF0A94ED720A04F5A8709B
:1007600005F051F894ED400A30EE280A84EDB90AFC
:1007700094ED5C0A30EE080A84EDBA0ABDEC028BF7
:1007800070BD000000000020000000000178042976
:1007900005D29FED030A80EDB90A80EDBA0A7047D1
:1007A0000000000010B504462DED028B002005F07E
:1007B0001FFDD4F89813D4EDE50A401A00EE100A94
:1007C00094F97D02B8EEC00A60EE200A00EE100A2D
:1007D0000120B8EEC00A20EE808A05F009FDD4F8A9
:1007E0009C13D4EDE50A401A00EE100A94F97E023B
:1007F000B8EEC00A60EE200A00EE100A94F87F02FC
:10080000B8EEC00A20EE800A78EE000AF1EE600A27
:1008100060B1012894F978021DD001282DD000BFC5
:10082000B0EE481A84EDE01A1DD01EE094F978026B
:1008300001280DD0B0EE401A84EDE01A01D0B0EEE0
:10084000480A84EDE10AC4EDE20ABDEC028B10BD5A
:10085000B0EE481AF0E701280CD000BFB0EE601AE5
:1008600084EDE01A01D0F0EE480AC4EDE10A84ED0F
:10087000E20AEAE7B0EE481AF2E7B0EE601AD1E712
:10088000014800F01ABF000078070020014800F07E
:1008900014BF0000D8070020014800F00EBF000080
:1008A000A00500200D4902688A4201D20C4901E0EE
:1008B0000B492031D2B21423083AB2FBF3F2436C55
:1008C00002F01F0223F003031944816404498031BC
:1008D000C164012191400165704700000804024095
:1008E000000802400179074A02EB81024265054A8D
:1008F0004432491E826501F01F0201219140C16509
:1009000070470000FC08024030B5D0E9134565602F
:10091000446D14B1D0E91645656090F8444004F088
:100920001F050124AC40056C6C600468636083683B
:10093000102B036803D099600068C26030BD9A60D4
:100940000068C16030BD704702480068406A80B2EC
:10095000704700009806002072B6FEE7F0B5002050
:100960009FED2D0A2D4A054606460146535C3D2B58
:1009700002D03F2B0AD001E0481CC0B2491CC9B2CA
:10098000C829F3D3115C2D2903D005E0491ECDB24F
:10099000F8E7401CC0B2012600273B46014604E0B0
:1009A000545C2E2C04D0491CC9B2A942F8D92CE0C1
:1009B0000F462AE0145C2E2C25D0B84208D33FB154
:1009C0005B1CDBB2F7EE000A00219FED151A11E067
:1009D000303C00EE904AF2EE041AB8EEE01AF0EE67
:1009E000400AB0EE410A00EEA10A0CE060EE810A76
:1009F000491CC9B29942F9D3303C01EE104AB8EE15
:100A0000C11A01EE200A401CC0B2A842D2D9002E61
:100A100001D0B1EE400AF0BD000000002C00002023
:100A2000CDCCCC3D704700002DE9F84F4FF00008C9
:100A30000446CDF800800D4694F85820DFF8EC937A
:100A4000616947464046012A0AD00126F84A84F8DF
:100A5000586041B1296A012905D0A36EEBB129E0A4
:100A60000220BDE8F88F6868092838D1A96A4FF4D8
:100A7000785041B12B6801F07C0100EA53400843F3
:100A8000E96A084302E0296800EA51402168CB6C1A
:100A900013400343CB64606621E0C4E91971A96A7D
:100AA000286A31B101F07C01401E0843E96A08431D
:100AB00000E0401E29682B79C1F3846103F01F0315
:100AC00099400143A06E401EA066636E43EA010395
:100AD000636604D12068C16C11401943C164206869
:100AE00002F067FF58B995F8250098B12068C168F1
:100AF00095F8262021F4401141EA4251C160206856
:100B000002F05FFF8246206802F053FF5AEA0000BD
:100B10000DD0FBE095F8260095F82410400540EA3A
:100B200001512068C26822F440121143E6E7A86A26
:100B300030B1E86A20B195F8250001285ED003E0C5
:100B400095F82500012804D02068C16821F00071C3
:100B500003E02068C16841F00071C16095F8300081
:100B6000012852D02068016921F002010161AA68C0
:100B700029682068B2F1004F38D002F02EFF2068BB
:100B8000416921F00041416120686969C268C2F38E
:100B9000C102520091402A69042A44D000EB82002D
:100BA0002B68026EDFF88CC203F0F84302EA0C02F5
:100BB0000B431A4342F00041016620682A69A96983
:100BC00000EB8200026E22F080720A430266297FE7
:100BD00022682869012923D05FF0000102EB800020
:100BE000026E22F000720A4302668FE0002202F0D9
:100BF000F4FE2068416941F00041C4E7E06D40F037
:100C00002000E0654FF00108A8E7D5E90D10014389
:100C10002068026922F4FF7242F002021143A5E744
:100C20004FF00071DAE7002102F0B9FE40032068BE
:100C30004FF0000172D002F0B2FE90FAA0F0B0FACC
:100C400080F1286842036ED090FAA0F0B0FA80F0EC
:100C5000814204D100221146206802F0CDFE01211C
:100C6000206802F09CFE400320684FF001015DD037
:100C700002F095FE90FAA0F0B0FA80F128684203E5
:100C800059D090FAA0F0B0FA80F0814204D100224D
:100C90000121206802F0B0FE0221206802F07FFEF0
:100CA000400320684FF0020148D002F078FE90FA2D
:100CB000A0F0B0FA80F12868420344D090FAA0F086
:100CC000B0FA80F0814204D100220221206802F0B3
:100CD00093FE0321206802F062FE400320684FF07B
:100CE000030133D002F05BFE90FAA0F0B0FA80F17D
:100CF000286842032FD090FAA0F0B0FA80F0814229
:100D000004D100220321206802F076FE2068816869
:100D100011F0010F22D0B6E000E004E002F03FFE47
:100D2000C0F384618DE7C0F3846091E702F037FE81
:100D3000C0F38461A2E7C0F38460A6E702F02FFE4F
:100D4000C0F38461B7E7C0F38460BBE702F027FE1D
:100D5000C0F38461CCE7C0F38460D0E72A7B2968C4
:100D600050F8B03FC1F3120C23EA0C0302F0180C48
:100D7000314A22FA0CF20A4013430360E9684945FC
:100D80007ED1286841031CD090FAA0F1B1FA81F11C
:100D9000491C01F01F0109294FEA403132D80029CE
:100DA00012D000BF90FAA0F1B1FA81F101F1010176
:100DB00001F01F0106FA01F609D100BFC0F38461FA
:100DC00009E0C0F38461E3E7C0F38461EEE790FAE1
:100DD000A0F1B1FA81F101F1010101F01F0146EA30
:100DE000816102D1C0F3846003E090FAA0F0B0FA10
:100DF00080F000F1010000F01F0000EB400041EA2C
:100E000000513AE000290ED090FAA0F1B1FA81F138
:100E100001F1010101F01F0106FA01F60ED100BF38
:100E2000C0F384610EE0C0F38461F1E700007F400D
:100E30000040100400F0FF03FFFF070090FAA0F14C
:100E4000B1FA81F101F1010101F01F0146EA81616E
:100E500002D1C0F3846003E090FAA0F0B0FA80F011
:100E600000F1010000F01F002B4A00EB400002EBF4
:100E7000005041EA000141F00071AA68206800E0DA
:100E800001E002F0AAFD25482A68024240D0244829
:100E90008168244B01F0E0719A4202D0224B9A42C1
:100EA0001BD10B0219D42268B2F1A04F30D1826855
:100EB00041F4000122F0E0720A4382601B481C49A1
:100EC0000068B0FBF1F0801C00EB4000800000E007
:100ED000401E00900028FBD11AE0164D164BAA4286
:100EE00007D1CD0105D422689A4211D041F080711A
:100EF00009E0124DAA420BD14A0209D422689A4253
:100F000006D041F48001826822F0E0720A438260D8
:100F100084F858704046A4E5000020FE00000880D8
:100F200000030050000021C31000C09018000020F2
:100F3000400D0300000052C700010050000084CBA8
:100F400010B54FF0A040D0F8802109490A60D0F8D0
:100F500084214A60D0F888218A60D0F88C01C8606A
:100F600003F09CFDBDE810400821024800F0DEBD02
:100F70001C00002000080048704700002DE9F041E7
:100F800004464548806800F01F05206802F011FD06
:100F900008BB2168C868C96C00F0004011F4C07F2C
:100FA00000D190B194F85800012814D0012084F8A1
:100FB00058002046FFF77EFA01004FF000020CD0E7
:100FC00084F858200846BDE8F081E06D40F020002C
:100FD000E0650120F7E70220F5E7E06DC00504D5E4
:100FE000206E20F00800206600E02266E06D42F2EC
:100FF0000103984340F48050E065284B20684FF08F
:10100000A046984201D1374600E00746874200D00B
:101010001DB9E76D27F48017E7656027076084F83E
:1010200058202068C268920203D5426842F4806268
:101030004260A06908282068426807D022F0400278
:1010400042602068426842F0200206E022F020025E
:1010500042602068426842F0400242602068984244
:1010600001D1324600E00246824209D045B1062D48
:1010700006D0072D04D0E06D40F48010E065A1E7B4
:10108000C26812F0007F9DD18268054B1A4042F081
:101090000802826096E70000000300500001005043
:1010A000C0FFFF7F70477047704770472DE9F05FC2
:1010B0000446006806684568DFF854B2DBF80800AB
:1010C00000F01F07B0070ED5A8070CD5E06DC006CD
:1010D00003D4E06D40F40060E0652046FFF7A2FC19
:1010E000216802200860DFF82CA270074FF0A048AA
:1010F00001D5680703D4300737D5280735D5E06D0B
:10110000C00603D4E06D40F40070E065206802F092
:101110005CFC20B32068504501D1424600E0024605
:10112000824208D03FB1052F05D0092F03D050458A
:1011300003D1414602E0C16801E00146C968890463
:101140000DD4016809070AD502F037FC58B3E06DE9
:1011500040F01000E065206E40F00100206620465F
:10116000FFF7A2FF21680C200860B00601D5A80691
:1011700003D4700658D5680656D5E06DC00603D472
:10118000E06D40F40050E0652068C16C11F4C07F50
:101190001AD00021894602F018FC0246206850450A
:1011A00014D1434613E02068416821F00C014160EE
:1011B000E06D20F48070E065E06DC004CFD4E06D98
:1011C00040F00100E065CAE70121E3E703468342FE
:1011D00008D03FB1062F05D0072F03D0504503D1CB
:1011E000414602E0C16801E00146C968B9F1000F5B
:1011F00014D08B0102D58AB18A040FD4026852063A
:101200000CD589020AD402F0D0FBE8B3E06D40F0BF
:101210001000E065206E40F0010020662046FFF7D8
:101220008FFE21686020086030060BD5280609D59E
:10123000E06D40F48030E065204600F067F92168F9
:1012400080200860F0050CD5E8050AD5E06D40F473
:101250000030E0652046FFF725FF21684FF48070DD
:101260000860B0050CD5A8050AD5E06D40F48020D3
:10127000E0652046FFF717FF21684FF40070086013
:10128000F0062ED5E80600E008E02AD5E06BD0B1E4
:10129000AFB1DBF8080000F4604013E0206841685B
:1012A00021F060014160E06D20F48050E065E06D68
:1012B000C005B3D4E06D40F00100E065AEE7206802
:1012C000C068C00750B1E06D40F48060E065206EFA
:1012D00040F0020020662046FFF7E7FE216810205C
:1012E0000860700512D5680510D5E06D40F48040A7
:1012F000E065206E40F00800206621684FF48060B1
:1013000008602046BDE8F05FFFF736BEBDE8F09FFD
:101310000003005000010050F8B54FF00005040034
:101320002E46009502D0E06D10B107E00120F8BD17
:10133000204600F0EDF8266684F858602068816841
:10134000C1F3407119B18168684A11408160206819
:101350008168C1F3007189B98168654A114041F023
:1013600080518160634864490068B0FBF1F040003F
:10137000801C00E0401E00900028FBD1206881689E
:10138000C1F3007141B9E16D41F01001E165216ED9
:1013900041F001012166012502F00FFBE16DC90654
:1013A00000D430B1E06D40F01000E0650125284622
:1013B000F8BDE06D20F4807040F00200E065206828
:1013C000806810F0010F11D14FF0A04080684B49A8
:1013D00000F00100896801F00101084306D1484886
:1013E0006168826822F47C120A438260E168E06BE3
:1013F000627F0843A16841EA4231084394F824100F
:1014000040EA0140012904D1218D3E4A02EB4141CD
:101410000843E16A29B101F47871226B014342EA81
:1014200001002268D168384B19400143D16020681F
:101430000169626B21F0406111430161206802F093
:10144000B4FA70BB207F94F83810800340EA410260
:101450002168C86844F2020398431043C8602069B9
:101460000028206801690AD041F4803101612068B8
:1014700050F8C01F22696FF30D01114307E021F4FA
:1014800080310161206850F8C01F6FF30D010160C9
:1014900094F8400001280CD02068016921F0010176
:1014A0000161606901282068016B21F00F0111D0F2
:1014B00013E0D4E911010843D4E91312114308439E
:1014C00021680A6940F2FC739A43104340F001001E
:1014D0000861E6E7226A521E11430163E06D20F0C5
:1014E000020040F00100E06561E70000C0FFFF5F1F
:1014F000C0FFFF7F18000020400D030000010050D6
:10150000000300500000FEFF0740F0FF704700009E
:1015100030B597B0044614216846FEF767FF4421B2
:1015200005A8FEF763FF2849206888424AD1C00118
:1015300005908003149005A800F004FC08B1FFF7A3
:101540000BFA2248C16C41F40051C164C16C01F432
:1015500000511691C16C41F00101C164C16C01F0F0
:1015600001011691C16C41F00401C164C16C01F02C
:1015700004011691C16C41F00201C164C06C0324E6
:1015800000F002001690502000258DE831006946D9
:101590004FF0904000F0A6F920208DE83100694618
:1015A0000B4800F09FF904208DE831006946094896
:1015B00000F098F900220221122000F02BFB1220EB
:1015C00000F01AFB17B030BD0001005000100240BF
:1015D000000800480004004810B590F825300021AC
:1015E0000122022B03D00421C163012122E0036800
:1015F0001C6824F00E041C60836C1C6824F4807446
:101600001C6003681C6824F001041C6090F84430DE
:10161000046C03F01F0302FA03F36360D0E9133490
:101620005C60436D33B11C6824F480741C60D0E9A5
:1016300016345C6080F82520002280F824200846BB
:1016400010BD70B590F82520002401212346022A00
:1016500007D00422C26380F8251080F824300124CA
:1016600029E00268156825F00E0515600268156806
:1016700025F001051560826C156825F480751560EC
:1016800090F84420056C02F01F0201FA02F26A6031
:10169000D0E913255560426D32B1156825F4807587
:1016A0001560D0E91625556080F8251080F82430A3
:1016B000816B01B18847204670BDF0B4016C0C68A5
:1016C00001680D6890F8442002F01F06042202FA17
:1016D00006F3234211D06B070FD50B689B0603D48A
:1016E0000B6823F004030B6090F8441001F01F0115
:1016F0008A40016C4A60016B1DE0022303FA06F781
:1017000027424FF0000C4FF0010218D0AF0716D55A
:101710000C68A40605D40C6824F00A040C6080F858
:10172000252090F8441001F01F018B40016C4B60A4
:1017300080F824C0C16A00291AD0F0BC08470823E9
:10174000B340234214D02B0712D50B6823F00E03AD
:101750000B6090F84410036C01F01F0102FA01F1D4
:101760005960C26380F8252080F824C0416BE2E70D
:10177000F0BC704770B504000CD02B4A21681420CF
:10178000914209D2294A0A44B2FBF0F08000606419
:1017900027480AE0012070BD234A52420A44B2FBA6
:1017A000F0F080006064204808382064022084F84B
:1017B00025000A6847F6F0708243D4E90203184313
:1017C000D4E904352B431843A3691843E36918434C
:1017D000236A1843104308602046FFF763F8A068A7
:1017E0000025B0F5804F00D16560A16C20790860BC
:1017F000D4E9130141606068401E032808D82046E0
:10180000FFF770F8606D0560D4E91601416002E0F1
:101810006565A565E565E563012084F8250084F824
:101820002450002070BD000008040240F8FFFDBFF6
:101830000000024070B5044690F8240000250128FD
:101840000CD0012084F8240094F825600020012E9B
:1018500006D084F824000225284670BD022070BD01
:10186000022684F82560E0632068066826F00106F9
:1018700006602046FFF748F8206B002820680168C2
:1018800002D041F00E0106E021F004010160206861
:10189000016841F00A010160A06C0168C90303D529
:1018A000016841F480710160606D18B1016841F414
:1018B000807101602068016841F001010160CBE79F
:1018C00070B5044600F040F90546601C02D004489B
:1018D0004068044400F038F9401BA042FAD370BDC0
:1018E0000C0000202DE9F04FDFF8209200230126A4
:1018F0000324A9F1040B85B00F2709F1040AABF109
:10190000040EFAE006FA03F52A407CD091F804C0F0
:101910000CF0030CBCF1010F02D0BCF1020F26D178
:10192000D0F808C0CDF800C04FEA430C04FA0CF818
:10193000CDF810C0DDF800C02CEA080CCDF800C0CE
:10194000D1F80C80DDF810C008FA0CF8DDF800C002
:1019500048EA0C08C0F80880D0F804C02CEA050C4E
:101960000D79C5F300159D4045EA0C0545600D79DC
:10197000ED43AD070ED0C5684FEA430804FA08FCF2
:1019800025EA0C05D1F808C00CFA08FC4CEA050C55
:10199000C0F80CC00D7905F00305022D16D1DD0845
:1019A00000EB850CCDF808C0DCF820805D074FEA1D
:1019B000D56C07FA0CF528EA05080D6905FA0CF54F
:1019C000DDF808C045EA0805CCF8205005684FEA64
:1019D000430CCDF808C004FA0CFC25EA0C0591F87C
:1019E00004C00CF00308DDF808C008FA0CF848EA57
:1019F0000508C0F800804D6815F4403F7CD0444D88
:101A0000D5F860C000E077E04CF0010CC5F860C08C
:101A10002D6E23F0030C05F0010500953D4D654446
:101A20000295AD684FEA837C4FEA1C7807FA08FC00
:101A300025EA0C05B0F1904F06D0DFF8DCC0604518
:101A400005D14FF0010C20E04FF0000C1DE0DFF855
:101A5000CCC0604502D14FF0020C16E0DFF8C0C0E8
:101A6000604502D14FF0030C0FE0DFF8B8C06045CD
:101A700002D14FF0040C08E0DFF8ACC0604502D1A1
:101A80004FF0050C01E04FF0060C0CFA08FC4CEA94
:101A9000050C029DC5F808C0D9F80050CC46D1F815
:101AA000048095435FEAC82800D51543CCF8005060
:101AB000DAF80050D446D1F8048095435FEA8828CC
:101AC00000D51543CCF80050DBF80050DC46D1F8C7
:101AD000048095435FEA883800D51543CCF8005060
:101AE000DEF80050F446D1F8048095435FEAC83828
:101AF00000D51543CCF800505B1C0A6832FA03F598
:101B00007FF400AF05B0BDE8F08F0000080401408D
:101B10000010024000000140000400480008004896
:101B2000000C00480010004800140048426921EAF7
:101B300002030A4043EA0241816170470AB18161B0
:101B4000704781627047000001488068704700005C
:101B50000C0000200248816842681144816070478F
:101B60000C00002010B50024032000F073F80F20B3
:101B700000F008F808B1012401E000F025F8204643
:101B800010BD000070B50E4E05460024706898B177
:101B90004FF47A71B1FBF0F00A490968B1FBF0F03B
:101BA00000F0A8FE40B9102D06D200222946501E92
:101BB00000F030F8356000E00124204670BD0000E0
:101BC0000C000020180000200A4882B0016E41F08D
:101BD00001010166016E01F001010091816D41F08A
:101BE00080518165806D00F08050009002B000F05F
:101BF000A1B8000000100240002809DB00F01F021D
:101C0000012191404009800000F1E020C0F800115E
:101C100070470000F0B40E4B1B680C46C3F3022360
:101C2000C3F10705042D00D90425191D072901D288
:101C3000002300E0DB1E012606FA05F1491E2140C3
:101C400099409E40761E16403143F0BC04F062BBC2
:101C50000CED00E0064900F0070208684FF6FF03AC
:101C6000184040EA0220034A104308607047000011
:101C70000CED00E00000FA052B492C4B0A683221DC
:101C80004A432B4940B1B0F5007F086829D020F4C1
:101C9000C06040F480602CE00868C0F34120022856
:101CA00004D051F8800F20F4807022E0D1F8800039
:101CB00020F48070C1F88000086820F4C06040F40F
:101CC00000700860B2FBF3F0401C00E0401E4A695F
:101CD000520501D50028F9D1486940050AD50320ED
:101CE0007047C0F34120022806D051F8800F40F41D
:101CF0008070086000207047D1F8800040F4807048
:101D0000C1F88000086820F4C06040F400700860EA
:101D1000B2FBF3F0401C00E0401E4A695205DBD5DF
:101D20000028F9D1D8E700001800002040420F0039
:101D3000007000400248816841F480418160704732
:101D4000007000402DE9F8430446006800269D4DD0
:101D500000035ED5A86D0027C00008D4A86D40F030
:101D60008050A865A86D012700F080500090DFF832
:101D70005892D9F8001041F48071C9F80010FFF7AB
:101D8000E3FE804606E000BFFFF7DEFEA0EB0800A2
:101D900002282BD8D9F80000C005F5D5D5F8900059
:101DA00010F4407014D0216C814211D0D5F890000D
:101DB000D5F8901020F4407041F48031C5F89010AF
:101DC000D5F8901021F48031C5F89010C5F8900036
:101DD000C00711D0FFF7B8FE804641F2883907E00E
:101DE000FFF7B2FEA0EB0801494501D903260BE03D
:101DF000D5F890008007F3D5D5F89000216C20F439
:101E000040700843C5F890001FB1A86D20F08050C5
:101E1000A8652078C00707D0D5F88800616820F051
:101E200003000843C5F888002078800707D5D5F857
:101E30008800A16820F00C000843C5F888002078CD
:101E4000400707D5D5F88800E16820F03000084346
:101E5000C5F888002078000707D5D5F888002169E3
:101E600020F0C0000843C5F888002078800607D518
:101E7000D5F88800616920F440600843C5F88800FF
:101E80002078400607D5D5F88800A16920F4405095
:101E90000843C5F888002078000607D5D5F88800E3
:101EA000E16920F440400843C5F888002088C00557
:101EB00007D5D5F88800216A20F440300843C5F8DA
:101EC00088002088800507D5D5F88800616A20F44D
:101ED00040200843C5F88800208840050FD5D5F874
:101EE0008800A16A20F440100843C5F88800A06A61
:101EF000B0F5801F03D1E86840F48010E8602088C6
:101F000000050FD5D5F88800E16A20F440000843A9
:101F1000C5F88800E06AB0F5800F03D1E86840F4A6
:101F20008010E8602088C0040FD5D5F88800216BA8
:101F300020F040700843C5F88800206BB0F1807F26
:101F400003D1E86840F48010E86020884FF0006119
:101F500080040ED5D5F88800626B20F040601043F5
:101F6000C5F88800606B884203D1E86840F48010AF
:101F7000E860208840040ED5D5F88800A26B20F0D8
:101F800040601043C5F88800A06B884203D1E86820
:101F900040F48010E860208800040FD5D5F8880050
:101FA000E16B20F040500843C5F88800E06BB0F1C9
:101FB000805F03D1E86840F48030E8603046BDE8D7
:101FC000F883000000100240007000402DE9F04747
:101FD0000E4605004FF0000725D0DFF8AC81D8F899
:101FE000000000F00F00B0420CD2D8F8001021F031
:101FF0000F013143C8F80010D8F8000000F00F00BE
:10200000B04210D12968614CC80741F2883A5AD0D1
:102010006868DFF87C91032808D0022820682DD05A
:10202000400500282CDB0120BDE8F08720688001F6
:10203000F9D5E06800F00302E068C0F30310401C2B
:10204000032A19D0534A00BFB2FBF0F0E268C2F392
:1020500006225043E268C2F34162521C5200B0FBB8
:10206000F2F0484517D9A06810F0F00F0CD088079F
:1020700011D5A86840B10EE0474AE5E78003D0E7F4
:1020800000F0B6F8484506D9A06820F0F00040F00E
:102090008000A0608027A068696820F003000843E2
:1020A000A060FFF751FD814606E000BFFFF74CFD41
:1020B000A0EB090151453AD8A068696800F00C000E
:1020C000B0EB810FF2D12868810714D5400703D502
:1020D000A06840F4E060A0602878000705D5A068FB
:1020E00020F4605040F4E060A060A068A96820F08F
:1020F000F000084304E0802F03D1A06820F0F00036
:10210000A060D8F80010404601F00F01B14216D986
:10211000016821F00F0131430160FFF715FD07460B
:1021200007E000BFFFF710FDC11B514501D9032097
:102130007AE7D8F8000000F00F00B042F2D128781A
:10214000400705D5A068E96820F4E0600843A06076
:102150002878000706D5A068296920F4605040EA75
:10216000C100A06000F044F8A1680C4AC1F303115B
:10217000515C01F01F01C840094908600948006826
:10218000BDE8F047FFF7FEBC00200240001002400F
:1021900000B4C4040024F40000127A00487D000852
:1021A000180000200C0000200548064900688968D6
:1021B000054AC1F30221515C01F01F01C84070477C
:1021C0001800002000100240587D0008054806490C
:1021D00000688968054AC1F3C221515C01F01F0102
:1021E000C84070471800002000100240587D0008C9
:1021F000184910B58868C0F381021748012A0BD02E
:102200008A684310C2F38102022A06D08A68C2F3A8
:102210008102032A03D0002010BD184610BDCA68F1
:1022200002F00304CA68C2F30312521C032C02D04A
:10223000B0FBF2F001E0B3FBF2F0CA68C968C2F388
:1022400006225043C1F34161491C4900B0FBF1F043
:1022500010BD0000001002400024F4002DE9F843F6
:1022600004007AD02078F84DC00747D0A868E96804
:1022700000F00C0001F003010C2802D0082817D050
:1022800001E0032914D06068B0F5803F17D0B0F5A5
:10229000A02F286817D020F480302860286820F408
:1022A000802028606068E0B1FFF74EFC064614E02D
:1022B0002868800322D560680028D2D01EE02868F4
:1022C00040F48030EDE740F480202860F7E700BF5D
:1022D000FFF73AFC801B642870D828688003F7D584
:1022E0000CE0FFF731FC064605E000BFFFF72CFCD1
:1022F000801B6428F0D828688003F7D420788007F2
:102300004CD5A868E96800F00C0001F003010C2826
:1023100002D004280DD001E002290AD0E06800288C
:1023200028682BD040F480702860FFF70DFC06462B
:1023300019E02868400502D5E068002891D0686857
:10234000217C20F0FE4040EA01606860BF480068E0
:10235000FFF718FC002800D120E072E1FFF7F4FB42
:10236000801B0228B8D828684005F7D56868217C0A
:1023700020F0FE4040EA016068600FE020F48070C9
:102380002860FFF7E1FB064605E000BFFFF7DCFB36
:10239000801B0228A0D828684005F7D420780007C1
:1023A00029D560690028D5F8940013D040F00100C9
:1023B000C5F89400FFF7C8FB064606E090E000BFB2
:1023C000FFF7C2FB801B022886D8D5F8940080074F
:1023D000F6D510E020F00100C5F89400FFF7B4FB3B
:1023E000064604E0FFF7B0FB801B022878D8D5F83A
:1023F00094008007F6D42078400761D5A86D0026A8
:10240000C00008D4A86D40F08050A865A86D0126D2
:1024100000F0805000908E480168C90511D4016811
:10242000804641F480710160FFF78EFB074604E0AF
:10243000FFF78AFBC01B022852D8D8F80000C0055D
:10244000F6D5A068012815D00528D5F8900016D03B
:1024500020F00100C5F89000D5F8900020F00400AD
:10246000C5F89000A06841F28838B8B1FFF76CFB5E
:1024700007460EE0D5F8900040F00100F0E740F08C
:102480000400C5F89000F5E7FFF75EFBC11B41456E
:1024900026D8D5F890008007F6D50CE0FFF754FB5E
:1024A000074604E0FFF750FBC11B414518D8D5F89B
:1024B00090008007F6D41EB1A86D20F08050A8656A
:1024C0002078800629D5A0690028D5F8980013D077
:1024D00040F00100C5F89800FFF736FB064606E01D
:1024E00075E000BFFFF730FB801B02286FD8D5F8DE
:1024F00098008007F6D510E020F00100C5F898009C
:10250000FFF722FB064604E0FFF71EFB801B0228B4
:102510005DD8D5F898008007F6D4E069F0B3A968D3
:10252000C1F3810103295DD00228286820F0807062
:10253000286003D0FFF708FB04464BE0FFF704FBDD
:10254000064604E0FFF700FB801B02283FD82868FE
:102550008001F7D4F4E908016FF00F0202EB0111DA
:102560000843218A5204490802EB4151A26841EA1A
:1025700002210843217D4FF07E42490802EB416170
:102580000843217B40EAC160E968324A11400843B0
:10259000E860286840F08070286000E05EE0E8684D
:1025A00040F08070E860FFF7CFFA044605E000BF16
:1025B000FFF7CAFA001B022809D828688001F7D55E
:1025C0004CE000BFFFF7C0FA001B022802D903202D
:1025D000BDE8F88328688001F4D4E8681E49084003
:1025E000E8603BE00128F3D0E868226A00F00301CC
:1025F000914226D1616A00F0F0020901103991423E
:102600001FD1A26A00F4FE41B1EB022F19D194F858
:102610002C2000F07841B1EBC26F12D1218E00F472
:10262000C00249084905A1F50011914209D194F869
:10263000341000F0C06049084906A1F100718142E0
:102640000CD00120C4E70000001002400C00002064
:10265000007000400C809F01FCFFEEFE0020B7E7F9
:102660007047000038B5016804464A688868C0436E
:10267000430606D5C30704D1D3435B0601D4E16CFE
:1026800005E0830708D4D3431B0605D4216D01B0B0
:102690002046BDE830400847830603D5430601D5F0
:1026A000C30551D4D3439B064ED443060AD494F8B1
:1026B0005D30032B49D0236E43F004032366CB68BF
:1026C0008B680093830609D4236E43F001032366CD
:1026D0008B6800930B6823F040030B60C00506D4A1
:1026E000206E40F008002066206880680090206E10
:1026F000002829D02068416821F0E00141600120D4
:1027000084F85D00900701D4D00722D0206841688A
:1027100021F003014160114DA06D40B18563A06DB2
:10272000FEF78FFF18B1206E40F040002066606D0C
:10273000002809D08563606DFEF783FF002803D071
:10274000206E40F04000206638BDC8688868009060
:1027500038BD2046FFF784FF38BD0000F94500086A
:1027600070B5040009D0606A002540B1256165613B
:10277000A56294F85D0040B10CE0012070BD606876
:10278000B0F5827FF4D0E561F2E784F85C50204632
:1027900000F05CF8022084F85D002068016821F0F8
:1027A00040010160E1684FF4E062914201D90020EC
:1027B00001E04FF48050B1F5706F02D0914200D02B
:1027C000A562A188228901F4827102F404421143B6
:1027D000227C02F002021143227D02F00102114329
:1027E000228B02F400721143227F02F0380211435F
:1027F00094F8202002F080021143228D02F400524E
:10280000114322681160A169042202EA114194F87F
:10281000242000F4805002F01002114394F8342078
:1028200002F008021143A28902F4706211430143CD
:10283000206841602068C16921F40061C16125669A
:10284000012084F85D00002070BD000070B586B0E6
:10285000064614216846FDF7C9FD214930688842C3
:102860003CD12049886D40F400408865886D00F4B3
:1028700000400590C86C40F00400C864C86C002596
:1028800000F0040005904FF4A05000900220CDE924
:1028900001050620CDE9035069461348FFF722F8E9
:1028A000134C124820600F2060601020C4E902051C
:1028B0008020C4E90405A561E56120462562FEF794
:1028C00059FF08B1FEF748F874650022052133204E
:1028D000A662FFF79FF93320FFF78EF906B070BDAF
:1028E000003C004000100240000800484400024044
:1028F000A005002010B5401EB0F1807F01D301205B
:1029000010BD4FF0E02460610F21601703F002FD5D
:102910000020A06107202061002010BD7047704793
:102920007047000030B590F83C20012A42D00122C7
:1029300080F83C20CA688B6822F440721A434B68C6
:1029400022F480621A430B6822F400621A430B6976
:1029500022F480521A434B6922F400521A430B6B43
:1029600022F480421A430B8B22F4702242EA034283
:10297000CB6922F080521A430F4D03680024AB420A
:1029800002D00E4DAB4210D10D8D22F4700242EAFE
:1029900005520D6A22F080722A434D6A22F00072BD
:1029A0002A43C96A22F000520A435A6480F83C4024
:1029B000002030BD022030BD002C01400034014019
:1029C0007047704770470000F0B590F83C20012A2E
:1029D0003AD0012580F83C50022280F83D2003685F
:1029E0005A689C68194E1A4FB34201D0BB4204D1B9
:1029F00022F4700C4A6842EA0C02DFF858C002EA7E
:102A00000C02D1F800C04CEA020CC3F804C0026802
:102A1000B2420DD0B2F1804F0AD00F4B9A4207D08C
:102A20000E4B9A4204D0BA4202D00D4B9A4204D1C6
:102A3000896824F080031943916080F83D5000219B
:102A400080F83C100846F0BD0220F0BD002C01408B
:102A5000003401408FFFFFFD0004004000080040EB
:102A600000400140704710B5040003D094F83D00C9
:102A700010B107E0012010BD002084F83C00204682
:102A800000F022F8022084F83D00211D206802F0A9
:102A90007DFC012084F8480084F83E0084F83F0063
:102AA00084F8400084F8410084F8420084F8430030
:102AB00084F8440084F8450084F8460084F8470010
:102AC00084F83D00002010BD08B5154A016815487E
:102AD00091420ED1016E41F400610166006E002248
:102AE00000F40060009011461920FFF793F81920B8
:102AF00010E0B1F1804F11D1816D41F0010181658C
:102B0000806D002200F00100009001211C20FFF7E1
:102B100081F81C20BDE80840FFF76EB808BD000032
:102B2000002C01400010024090F83D10012901D016
:102B300001207047022180F83D100168CA6842F008
:102B40000102CA600068104988420ED0B0F1804F7F
:102B50000BD00E49884208D00D49884205D00D4956
:102B6000884202D00C49884207D181680B4A114043
:102B7000062906D0B1F5803F03D0016841F001017C
:102B80000160002070470000002C0140000400405C
:102B900000080040003401400040014007000100EF
:102BA00070B5044690F83C000025012814D0012699
:102BB00084F83C60022084F83D0022689068364B1F
:102BC000184020F47F409060086870282ED010DCF8
:102BD00010F00F0F03D021E04FF0020070BD4FEA5C
:102BE0002012072A1AD2DFE802F0525252524A3813
:102BF00040002A4BC21A984249D009DCB0F5805FE8
:102C00000DD0B0F5005F1CD0B0F1101F06D13EE032
:102C1000102A3CD0202A3AD0502A38D0012584F8F6
:102C20003D60002084F83C00284670BDCB68D1E9A7
:102C30000121206802F015FC2068816841F07701CD
:102C400009E0CB68D1E90121206802F00AFC206884
:102C5000816841F480418160E1E7CA684968206881
:102C600002F0AAFD5021206806E0CA684968206881
:102C700002F0B3FD6021206802F0FEFBCFE7CA68D6
:102C80004968206802F098FD40212068F4E7226836
:102C900001461046F0E7000088FFCEFF200010003C
:102CA0002DE9F0410D46040003D094F83D0018B121
:102CB00008E00120BDE8F081002084F83C002046B7
:102CC00000F042F8022084F83D00206881681D4A27
:102CD00011408160211D206802F058FB2268906835
:102CE0009169166A2B68AF69034340F20330814350
:102CF00041EA0721A868EF6908434FF6FC41884381
:102D0000E96840EA0720014328692F6A000140EA88
:102D10000730084369686D6926F0AA0646EA05157A
:102D2000294393602268906154F8480B01620120A6
:102D300004F81F096075A075E076207720750020E3
:102D4000B8E70000F8BFFEFF10B586B004461421B6
:102D50006846FDF74BFB1149206888421CD110489A
:102D6000816D41F002018165816D01F002010591E3
:102D7000C16C41F00201C164C06C002100F002008E
:102D80000590302000900220CDE90101CDE903102B
:102D900069460448FEF7A6FD06B010BD00040040D9
:102DA000001002400004004870B590F83E600446F0
:102DB00090F83F5090F8443090F84520022021B11F
:102DC00004290ED0012E1BD114E0012E18D1012BA5
:102DD00016D184F83E0084F84400012200212068C6
:102DE00020E0012D0CD1012A0AD184F83F0084F89B
:102DF000450014E0012D03D1012B01D1012A01D09E
:102E0000012070BD84F83E0084F83F0084F844003F
:102E100084F8450001220021206802F015FB012200
:102E20000421206802F010FB2068016841F00101D4
:102E30000160002070BD70472DE9F0410446006834
:102E4000C66805694FF00007A90713D5B10711D56A
:102E5000F91E0161012020772068806980072046E3
:102E600002D0FFF7E8FF04E000F0E2F8204600F0AF
:102E7000A4F92777680716D5700714D521686FF075
:102E800004000861022020772068806910F4407FE8
:102E9000204602D0FFF7CFFF04E000F0C9F820463B
:102EA00000F08BF92777280715D5300713D521684F
:102EB0006FF008000861042020772068C06980074F
:102EC000204602D0FFF7B7FF04E000F0B1F820463B
:102ED00000F073F92777E80616D5F00614D52168B7
:102EE0006FF010000861082020772068C06910F496
:102EF000407F204602D0FFF79EFF04E000F098F8E4
:102F0000204600F05AF92777E80708D0F00706D0E6
:102F100021686FF001000861204600F0CDF9280615
:102F200001D4A80408D5300606D521686FF40250F4
:102F300008612046FFF7F3FCE80508D5300606D502
:102F400021686FF4807008612046FFF7E7FC68068F
:102F500008D5700606D521686FF04000086120464C
:102F600000F0C8F9A80608D5B00606D521686FF0AC
:102F7000200008612046FFF7D3FCE80208D5F002E4
:102F800006D521686FF4801008612046FFF719FD0F
:102F9000A80208D5B00206D521686FF400100861B8
:102FA0002046FFF70DFD680208D5700206D521689E
:102FB0006FF4800008612046FFF704FD28020AD55F
:102FC000300208D521686FF4000008612046BDE892
:102FD000F041FFF747BDBDE8F081000010B586B0B5
:102FE000044614216846FDF701FA0E49206888421C
:102FF00015D10D48C16C41F00401C164C06C0021C1
:1030000000F004000590072000900220CDE90101A6
:103010000321CDE9031069460448FEF763FC06B0BE
:1030200010BD0000002C01400010024000080048C4
:10303000704770B5044690F83C0000260D46012804
:103040000BD0012084F83C000C2A4AD007DC82B166
:10305000042A20D0082A06D131E0022070BD102AAF
:1030600053D0142A63D00126002084F83C00304657
:1030700070BD206802F00AFA2068816941F00801F9
:1030800081612068816921F0040181612068816982
:103090002A69114311E0206802F046FA206881692C
:1030A00041F4006181612068816921F4806181615E
:1030B000206881692A6941EA02218161D4E7206898
:1030C00002F07AFA2068C16941F00801C161206804
:1030D000C16921F00401C1612068C1692A691143F5
:1030E00011E0206802F0B0FA2068C16941F4006183
:1030F000C1612068C16921F48061C1612068C16932
:103100002A6941EA0221C161AEE7206802F0E4FACF
:103110002068016D41F0080101652068016D21F012
:10312000040101652068016D2A69114311E02068DE
:1031300002F00AFB2068016D41F40061016520681E
:10314000016D21F4806101652068016D2A6941EA01
:103150000221016588E710B5040003D094F83D0012
:1031600010B107E0012010BD002084F83C0020468B
:1031700000F022F8022084F83D00211D206802F0B2
:1031800005F9012084F8480084F83E0084F83F00E7
:1031900084F8400084F8410084F8420084F8430039
:1031A00084F8440084F8450084F8460084F8470019
:1031B00084F83D00002010BD7047704730B50446CC
:1031C000022269B1042912D0082917D00C291CD079
:1031D000102921D094F84300012824D0012030BDCB
:1031E00094F83E000128F9D184F83E201DE094F8BF
:1031F0003F000128F2D184F83F2016E094F8400007
:103200000128EBD184F840200FE094F84100012818
:10321000E4D184F8412008E094F842000128DDD18F
:1032200084F8422001E084F843200122206802F063
:103230000BF9194B20681949194A984209D088425C
:1032400007D0904205D0174DA84202D0164DA84293
:1032500003D1456C45F400454564206898420CD084
:10326000B0F1804F09D0114B984206D0104B9842D4
:1032700003D0884201D0904207D181680D4A1140A5
:10328000062906D0B1F5803F03D0016841F0010165
:103290000160002030BD0000002C014000340140DE
:1032A000004001400044014000480140000400404B
:1032B000000800400700010010B504460948844298
:1032C00002D10948FDF75AFE0848844208D14FF45C
:1032D00000410748FEF72AFCBDE8104001F050BC51
:1032E00010BD000000060020D00400204C06002085
:1032F00000080048704790F88410012918D0012177
:1033000080F884102421C0F8881001680A680B68CE
:1033100023F001030B6022F0005100224266036893
:1033200019602021C0F8881080F88420104670476A
:103330000220704710B50446D0F88C00202801D038
:10334000022010BD61B15AB10120E0660020206763
:10335000204602F085FD0028F3D1E16E012901D05D
:10336000012010BD226810211162226852E8001F5E
:1033700041F0100142E80013002BF6D110BD00000F
:1033800010B50068094A90420FD1094801F008FCC5
:10339000C82207490748FFF7CDFF0648D0F880004C
:1033A0000068016821F00401016010BD003801408F
:1033B0002C000020E4060020704770B5044690F809
:1033C000840001281DD0012084F884002420C4F842
:1033D000880020680568026822F001020260206807
:1033E000826822F060620A438260204602F05CFA42
:1033F000206805602020C4F88800002084F884003C
:1034000070BD022070BD70B5044690F8840001289C
:103410001DD0012084F884002420C4F8880020688E
:103420000568026822F0010202602068826822F0CA
:1034300060420A438260204602F036FA2068056046
:103440002020C4F88800002084F8840070BD022089
:1034500070BD7047704770472DE9F041036804461E
:10346000D86919689A6840F60F0528424FF00005A0
:103470004FF002060AD187067ED501F0200702F040
:10348000805C57EA0C0777D0616F42E1B64FDFF8F6
:10349000DCC2174001EA0C0C57EA0C0C6CD05FEA56
:1034A000C07C0CD05FEAC15C09D54FF0010CC3F8B9
:1034B00020C0D4F8903043F00103C4F89030830763
:1034C00009D5D30707D023681E62D4F8903043F0A3
:1034D0000403C4F8903043070AD5D30708D0266800
:1034E00004233362D4F8903043F00203C4F89030E0
:1034F00003070CD501F020033B4308D026680823BE
:103500003362D4F8903043F00803C4F890300305D8
:103510000BD54B0109D526684FF400633362D4F80C
:10352000903043F02003C4F89030D4F89030002B52
:103530003DD0800609D501F0200002F080510843FB
:1035400003D0616F09B120468847D4F89000216804
:103550008968490602D410F0280F2AD0204602F0CC
:1035600003FB2068806840061ED52068083050E8BC
:10357000001F21F0400100E021E040E80012002A95
:10358000F3D1D4F8800078B179498163D4F8800010
:10359000FEF757F800280AD0D4F88000816B00E0CD
:1035A0002046BDE8F04108472046FFF754FFBDE83C
:1035B000F0812046FFF74FFFC4F89050F7E7D4F8AA
:1035C0006CC02027BCF1010F7ED15FEAC06C7BD5B7
:1035D0005FEAC16C78D510201862206880684006C8
:1035E00051D5D4F880100A6850680004000C3ED011
:1035F000B4F85C3083423AD9A4F85E0008680068E9
:1036000080062CD4216851E8000F20F4807041E836
:103610000002002AF6D12068083050E8001F21F08F
:10362000010140E80012002AF5D12068083050E876
:10363000001F21F0400140E80012002AF5D1C4F833
:103640008C70E566216851E8000F20F0100041E819
:103650000002002AF6D1D4F88000FDF7BDFF2667EE
:10366000B4F85C00B4F85E10401A81B207E0B4F818
:103670005C1081429BD11068800698D52667204651
:10368000FFF77EFE93E7B4F85C00B4F85E10401AD2
:1036900081B2B4F85E00002889D0002987D0226862
:1036A00052E8000F20F4907042E80003002BF6D19E
:1036B0002D4BDB432068083050E8002F1A4040E8CB
:1036C000002CBCF1000F00E00EE0F3D1C4F88C70C8
:1036D000E5666567206850E8002F22F0100240E898
:1036E0000023002BF6D1C9E7C60209D5560207D53B
:1036F0004FF4801018622046BDE8F041FFF7AABEE3
:1037000003060AD501F0800302F40002134304D03B
:10371000A16F00297FF444AF49E7420611D54A065C
:103720000FD52046016851E8002F22F0400241E801
:103730000023002BF6D1C0F88870856700F02DF9C2
:1037400035E7020206D54A0004D52046BDE8F0411F
:10375000FFF77FBEC00195D5002993DA2046BDE86A
:10376000F041FFF729BE0000010000102001000415
:10377000615A000810B5040003D0D4F8880010B1D5
:1037800007E0012010BD002084F88400204600F0EE
:1037900027F82420C4F888002068016821F001017E
:1037A0000160A06A10B1204602F0A0F8204602F0A5
:1037B0001DFA0128E6D02068416821F4904141605B
:1037C0002068816821F02A0181602068016841F049
:1037D000010101602046BDE8104002F0EBB8000096
:1037E000F0B597B00646142111A8FCF7FFFD44215F
:1037F0006846FCF7FBFD36493068884266D10120F7
:103800000024CDE900046846FEF79CFA08B1FDF7F4
:10381000A3F83048016E41F480410166016E01F465
:1038200080411691C16C41F00201C164C06C11A9C4
:1038300000F002001690C02011900220CDE9120481
:1038400003201490072015902348FEF74BF82348D7
:10385000416841F480314160416841F40031416088
:10386000204D1F48802728601820C5E90104C5E9BC
:1038700003476C61AC61EC6128462C62FDF77AFF6E
:1038800008B1FDF769F8C6F88050AE62154D1448CE
:103890006035143028601920686005F10801102097
:1038A00081E891006C61AC61EC6128462C62FDF707
:1038B00061FF08B1FDF750F8F567002205212520CA
:1038C000AE62FEF7A7F92520FEF796F917B0F0BD16
:1038D0000038014000100240000400480000014090
:1038E0000800024078070020704770472DE9F84330
:1038F0000446D0F88800984616460D46202802D087
:103900000220BDE8F883A5B19EB10020C4F8900064
:103910002120C4F888001834FEF716F9A6878146DE
:10392000E68754F8100C2027183CB0F5805F02D0D1
:1039300003E00120E5E7206910B12E46002510E0E4
:1039400000260EE08021204602F0DEFAC0B9DEB18A
:1039500016F8010B21688862B4F85600401EA4F8DE
:103960005600B4F856004B464FF00002CDF80080E8
:103970000028E7D14FF04001204602F0C5FA40B1DF
:10398000C4F888700320BCE735F8020BC0F30800C8
:10399000E0E7C4F888700020B3E77047FEE700EB6B
:1039A0008100006E00F0F84070478068C0F3C000EE
:1039B00070478068C0F3C00070478068C0F3800023
:1039C00070478068C0F380007047C06810F4406F93
:1039D00001D00020704701207047042303EAD1532F
:1039E00010B518444369C1F3045107248C40A34324
:1039F0008A401343436110BD00EB8100016E21F04A
:103A000000411143016670472DE9F04104462DED58
:103A1000068B90ED0EAB90ED108B53EC1A2B51EC06
:103A2000180B02F0ABFE9FED361B53EC112B02F08E
:103A3000A5FE41EC190B53EC182B51EC180B02F0BE
:103A40009DFE53EC1A2B02F099FE53EC1A2B02F058
:103A500095FE41EC180B02F01FFD9FED2B0B074666
:103A6000206253EC102B51EC180B02F087FE0E462F
:103A700046EC100B054651EC100B02F00DFDC4E9AD
:103A8000090753EC192B51EC180B02F037FD9FED91
:103A900020AB53EC1A2B02F031FD02F0FDFC46EC9A
:103AA000105B9FED1D1BE06253EC112B51EC100BD2
:103AB00002F024FD02F0F0FC206353EC192B51ECD2
:103AC000180B02F08FFF53EC1A2B02F017FD02F0D7
:103AD000E3FC60639FED120A002000BF04EB80014D
:103AE000401C81ED000A81ED030A0328F6DB84ED1A
:103AF000060A84ED070ABDEC068BBDE8F0810000E4
:103B0000000000609EA00640000000000000004091
:103B1000000000000000104000000000000020C075
:103B20000000000010B504462DED028B5FF002008E
:103B300004EB8001401E11ED010A002881ED000A0E
:103B400091ED020A81ED030AF2DC94ED060A84EDA0
:103B5000000AD4ED080A60EE808A94ED090AD4EDDB
:103B6000010A40EE208A94ED0A0AD4ED020A40EEE2
:103B7000208A94ED0C0AD4ED040A20EE208A94EDFC
:103B80000D0AD4ED050A00EE208A94ED0B0AB5EE7D
:103B9000C00AF1EE10FA11D0B0EE480A02F05AFB5A
:103BA00060B9B0EE480A02F048FB38B938EEC80AEE
:103BB000D4ED0B0A80EE201A84ED031A94ED030A6B
:103BC00002F048FB20B994ED030A02F036FB40B145
:103BD0009FED050A84ED030A84ED070ABDEC028B14
:103BE00010BD94ED030AF7E700000000704770472E
:103BF000704770477047704770477047704770470D
:103C000070477047704770477047704770477047FC
:103C100070477047704770477047704730B58FB036
:103C20003C216846FCF7E2FB30482F490024016044
:103C30004FF44031C0E90114042585610121C460BD
:103C4000C0E9044104774477016280F8244080F899
:103C50003840C46380F84040FDF75EFB08B1FCF7D4
:103C60007BFE234800900920CDE901047F200594C4
:103C7000CDE903058DF824408DF8254008958DF891
:103C800026400A940B948DF8304069461748FCF79B
:103C9000CBFE08B1FCF760FE1648009040F20F1012
:103CA000019069461148FCF7BFFE08B1FCF754FECD
:103CB0001148009040F21520019069460B48FCF72E
:103CC000B3FE08B1FCF748FE0C48009040F21B30F0
:103CD000019069460548FCF7A7FE002801D0FCF7D3
:103CE0003BFE0FB030BD000000010050D0040020AA
:103CF0000008302E0800900C00005247001060327F
:103D0000154808B5816C41F004018164816C01F0B3
:103D100004010091816C41F001018164806C0022FA
:103D200000F00100009011460B20FDF773FF0B20FF
:103D3000FDF762FF002211460C20FDF76BFF0C20FF
:103D4000FDF75AFF002211460E20FDF763FFBDE884
:103D500008400E20FDF750BF001002402DE9F04F43
:103D600087B014216846FCF741FB5248C16C41F012
:103D70000401C164C16C01F004010591C16C41F002
:103D80002001C164C16C01F020010591C16C41F0BA
:103D90000101C164C16C01F001010591C16C41F0E8
:103DA0000201C164C16C01F002010591C16C41F0D6
:103DB0000801C164C06CDFF8009100F008004FF406
:103DC00060440590012221464846FDF7B7FE0022D7
:103DD00040F608014846FDF7B1FE4FF0904B002237
:103DE00007215846FDF7AAFEDFF8D0A000220121E6
:103DF0005046FDF7A3FE4FF40048012241465846C5
:103E0000FDF79CFE002204212D48FDF797FE0125B9
:103E1000CDE900450024CDE9025469464846FDF746
:103E200061FD03260820022703968DE8A10069465C
:103E30004846FDF757FD072003948DE8A100694629
:103E40005846FDF74FFDCDE902740095694650468E
:103E50000195FDF747FD2803CDE90004694650466A
:103E60000294FDF73FFD6802CDE90004694648462B
:103E70000294FDF737FDCDF800800396CDE901549B
:103E800069465846FDF72EFDE802CDE90005CDE96B
:103E9000024669464846FDF725FD0420CDE90005A8
:103EA000CDE9024669460648FDF71CFD07B0BDE8AE
:103EB000F08F000000100240000800480004004895
:103EC000000C0048134810B5114901604FF482718D
:103ED00041604FF4004181604FF4E061C160002116
:103EE0004FF400720161C0E905121022C0E90721F8
:103EF00007224162C0E90A12016308214163FEF70B
:103F00002FFC002803D0BDE81040FCF725BD10BDF4
:103F1000003C00403C05002030B59BB000241994C3
:103F20001A9417941894149415941C210DA816949F
:103F3000FCF75CFA34216846FCF758FA34483349F8
:103F4000202580E8320041F29901C0E903140321E1
:103F5000416180218161FEF786FD08B1FCF7FCFC20
:103F60004FF48050179017A92948FEF719FE08B1A1
:103F7000FCF7F2FC2648FFF7EEF808B1FCF7ECFC82
:103F8000CDE9145414A922481694FEF71DFD08B17A
:103F9000FCF7E2FC7020CDE90D040F94109411940D
:103FA000129400220DA91A481394FFF742F808B1A1
:103FB000FCF7D2FC04220DA91548FFF73AF808B126
:103FC000FCF7CAFC08220DA91148FFF732F808B126
:103FD000FCF7C2FC00944FF40050CDE90440039478
:103FE0000003CDE9084001940294069407940A94D2
:103FF0000B94694606480C94FEF794FC08B1FCF754
:10400000ABFC0348FEF7EAFF1BB030BD002C0140BB
:104010000006002010B588B00024174800940194D1
:1040200002940394049405944FF080410694016037
:10403000A921C0E9011440F2E731C0E9031480214D
:104040008161FEF710FD08B1FCF786FC4FF480504B
:10405000009069460848FEF7A3FD08B1FCF77CFC18
:10406000049404A904480694FEF7AEFC002801D08D
:10407000FCF772FC08B010BD4C06002010B58CB0E7
:1040800024216846FCF7B2F90024164809940A94E2
:1040900013490B94C0E9001440F6FF71C0E90241D6
:1040A000046184610320CDE900040120CDE902040C
:1040B0000494CDE90540079469460A480894FEF740
:1040C000EFFD08B1FCF748FC099409A905480B94D9
:1040D000FEF77AFC002801D0FCF73EFC0CB010BDC6
:1040E0000004004098060020174810B515490160EB
:1040F00016494160002181600C22C160C0E90412B0
:104100008161C161016241628162FFF733FB08B1E5
:10411000FCF722FC00210C48FFF775F908B1FCF709
:104120001BFC00210848FFF748F908B1FCF714FC14
:104130000548FFF7E0F8002803D0BDE81040FCF781
:104140000BBC10BD00380140E406002080841E0036
:10415000FEE700000178182903D2034850F8210037
:104160000047002101707047B07C0008FEE70000A6
:1041700010B504462DED068B90ED140B90ED108BD1
:1041800053EC102B51EC180B02F0F8FA94ED0E9B47
:1041900041EC1A0B53EC192B51EC180B02F0EEFA10
:1041A00094ED160B41EC180B53EC192B51EC100B42
:1041B00002F0E4FA41EC190B51EC1A0B02F06CF925
:1041C0009FED1DAB606253EC1A2B51EC190B02F002
:1041D000D5FA02F061F9A06253EC1A2B51EC180BDE
:1041E00002F08CF902F058F99FED150BE06253ECE8
:1041F000102B51EC180B02F081F902F04DF92063FD
:104200009FED110A002000BF04EB8001401C81EDEE
:10421000000A81ED020A81ED040A0228F4DB84ED34
:10422000060A84ED070A84ED080A002084F83400A9
:10423000BDEC068B10BD0000000000000000004037
:1042400000000000000000C00000000010B504469F
:104250002DED028B9FED4F8B90ED000A53EC182B48
:1042600080ED010A90ED020A80ED030A90ED040A48
:1042700080ED050A90ED060AD0ED070A30EE600ADF
:1042800080ED000A90ED140B51EC100B02F0EAF9EE
:1042900048D094F83400E0B194ED030A84ED020AAA
:1042A000D4ED000A60EE800AF5EEC00AF1EE10FAD5
:1042B0000DD3D4ED1A0AB4EEE00AF1EE10FA31D2C1
:1042C000D4ED1B0AB4EEE00AF1EE10FA2ADD00206C
:1042D00026E094ED090AD4ED000A94ED011A0120BC
:1042E00060EE200A40EE010A94ED030AB0EE001AD7
:1042F00040EE010AB6EE000A20EE800A84ED020AC2
:10430000D4ED1A0AB4EEE00AF1EE10FA06DCD4EDB0
:104310001B0AB4EEE00AF1EE10FA03D2C4ED020A71
:1043200084F8340094ED160B53EC182B51EC100B61
:1043300002F098F915D0D4ED0A0A94ED000A94ED34
:10434000011A20EE800A00EEC10AD4ED0C0A94EDA9
:10435000051A00EEC10AD4ED0B0A80EE201A84ED96
:10436000041A94ED020AD4ED000A94ED121A00EE3C
:10437000810AD4ED040A30EE200A84ED080A94ED97
:10438000191AD4ED180A01F041FF84ED080ABDECBA
:10439000028B10BD000000000000000010B50446B4
:1043A0002DED088B90ED0E0B90ED0A9B53EC102B2E
:1043B00051EC190B02F0E2F994ED0CAB9FED230BDD
:1043C00041EC180B53EC102B51EC1A0B02F0D6F900
:1043D00053EC182B02F092F89FED1EBB53EC1B2BF5
:1043E00002F0CCF902F058F89FED1C0BE06053ECA2
:1043F000102B51EC1A0B02F0C1F953EC182B02F000
:104400007DF853EC1B2B02F0B9F902F045F820615E
:1044100053EC1B2B51EC190B02F0B0F902F03CF8F5
:10442000606100209FED0F0A84F8400084ED000ACF
:1044300084ED010A84ED020A84ED070A84ED080A7E
:1044400084ED060ABDEC088B10BD000000000000E2
:1044500000000040000000000000E03F00000000FD
:10446000000000C00000000010B590ED030AD0ED80
:10447000060A90ED001A044660EE200A90ED040A48
:1044800040EE010A90ED010A30EE801A80ED071A25
:10449000D0ED050A20EE811A00EE801A90ED020A96
:1044A00031EE000A80ED080A90F8400018B901F0DA
:1044B000DFFE84ED080A94ED060A84ED000A94ED0F
:1044C000070A84ED010A94ED080A84ED020A10BD82
:1044D0007047000010B5FCF741FA304930480A78BF
:1044E000412A05D00123422A1AD0432A43D04EE064
:1044F00049784F294BD1417831B1012907D00229A0
:1045000008D0032943D108E080EDBA0A3FE080EDEE
:10451000B80A3CE080EDB50A39E080EDB60A36E035
:1045200049784F2933D1B5EEC00AF1EE10FA06DD15
:1045300010EE101AB1F17E5F01DA002119E010EEE1
:10454000101AA1F17E51B1F5000F01D243701EE0A7
:1045500010EE101AA1F18041B1F5800F01D20221B5
:1045600007E010EE101A0F4A1144B1F5600F0ED299
:10457000032141700BE049784F2908D110EE101A41
:10458000B1F17C5F02DA1621017000E00370BDE832
:104590001040C8210148FBF707BF00002C00002095
:1045A000F80000200000C0BF002100F8301F41705B
:1045B000802181707F21C1707047342101F0F6BCE9
:1045C0000948017800EE101AB8EE400A80EDE80ABA
:1045D000417800EE101AB8EE400A80EDF30A00F5BB
:1045E0006870FFF7EABF0000F80000200148FEF7FE
:1045F00039B800003C05002010B5806A0021A0F801
:104600004610C187FEF72CF810BD000000B5FCF77E
:104610009BF900EE100ADFED030AB8EE400A20EE27
:10462000200A00BDDB0FC93A9FED070A002180ED8B
:10463000000A80ED010A80ED020A80ED030A80ED98
:10464000040A0175704700000000000010B5044620
:104650002DED028B90ED030AD0ED040A30EE600AD6
:1046600080ED000A01F0E2FDD4ED090AF4EEC00A83
:10467000F1EE10FA04DD94ED001A81EE208A0BE0D1
:10468000D4ED000AF5EEC00AF1EE10FA02DDB7EE45
:10469000008A01E0BFEE008A01F002FED4ED060AB6
:1046A00094ED071A20EE200AB5EEC01A60EE080A53
:1046B000F1EE10FA38D0207DD0B194ED001A94EDCF
:1046C000010A21EE001AB5EEC01AF1EE10FA0DD370
:1046D00094ED0C1AB4EEC10AF1EE10FA24D294ED66
:1046E0000D1AB4EEC10AF1EE10FA1DDD00201AE039
:1046F00021EE081A94ED010AD4ED081A012001EE0A
:10470000210A84ED010A94ED0C1AB4EEC10AF1EE0F
:1047100010FA06DC94ED0D1AB4EEC10AF1EE10FAAF
:1047200002D284ED011A207594ED010A30EE200AC0
:1047300084ED020A94ED0B1AD4ED0A0A01F066FD2D
:1047400084ED020ABDEC028B10BD704770B51446B3
:104750002DED048B0D460646B7EE002A9FED831A19
:10476000B6EE008AF5EEC00A60EE011A9FED801ADF
:1047700020EE011A40EEC81A00EEC81AF1EE10FA47
:1047800001DD012000E00020F5EEC01AF1EE10FA84
:1047900001DD012100E00021B5EEC01A00EB41016E
:1047A000F1EE10FA01DD012000E0002001EB8003B2
:1047B0004FF07E51052B44D0DFED6D2AB6EE003A66
:1047C000F0EE603A60EE222A53EE832ADFED673A7C
:1047D000012B20EE230AF0EE603A03EEC30AB1EE9D
:1047E000403A45D0032B5CD0F1EE600A022B74D026
:1047F000062B70D0042B6FD0B0EE480AF0EE488A3A
:104800009FED5C9AF7EE000AB0EE491A01F0FEFC4B
:1048100086ED000AB0EE491AF7EE000AB0EE680A1B
:1048200001F0F4FC85ED000AB0EE491AF7EE000A3B
:10483000B0EE480A01F0EAFC84ED000ABDEC048BFE
:1048400070BD31EE200A10EE100A884205DDC2EE7E
:10485000001A21EE811A61EEA00A32EE410A30EE12
:10486000600A20EE088A31EE200A30EE080A15E0D0
:1048700032EE830A10EE100A884205DDC2EE000A0D
:1048800060EEA22A20EE833A32EE620A72EE830ACA
:1048900030EE430A20EE088A33EE080A70EE888A6A
:1048A000AEE730EEA10A10EE100A884205DD82EE76
:1048B000001A61EE200A61EE211A32EE600A70EEF3
:1048C000A10A30EE610A20EE080A70EE808A31EE0D
:1048D000808A95E701E019E02FE030EEA20A10EEA1
:1048E000100A884205DD82EE001A61EE200A61EEB0
:1048F000222A32EE600A70EEA20A30EE620A20EE40
:10490000080A72EE808A30EE808A79E731EE810AF9
:1049100010EE100A884205DDC2EE000A60EEA11A10
:1049200020EE811A32EE610A71EE810A30EE410A00
:1049300060EE088A31EE280A15E033EE200A10EE08
:10494000100A884205DD82EE001A21EE033A61EE7C
:10495000200A32EE430A30EE600A60EE088A33EE37
:10496000200A30EE280A30EEA88A49E7D7B35DBFA7
:10497000D7B35D3F000000001CB5B0EE612AF0EE39
:10498000412A0446F0EE601AB0EE401AF0EE420AF8
:10499000B0EE620A01A9684601F024FD04F53F72F9
:1049A000111F9DEC020A081FFFF7D0FE94F979024F
:1049B000012802D0401C21D054E0B4F87A02D4ED92
:1049C000BD0A00EE100AB8EE400A20EE800ABCEEE6
:1049D000C00A10EE101A00EE100AA4F8EC12D4ED82
:1049E000BE0AB8EE400A20EE800ABCEEC00A10EE05
:1049F000101AA4F8EE12D4EDBF0A27E0D4EDBD0AD8
:104A0000B7EE000AB4F87A0230EE601A00EE900AAF
:104A1000F8EE600A61EE200AFCEEE00A10EE901A51
:104A2000A4F8EC12D4EDBE0A30EE601A00EE900A43
:104A3000F8EE600A61EE200AFCEEE00A10EE901A31
:104A4000A4F8EE12D4EDBF0A70EE600A00EE100A70
:104A5000B8EE400A20EE800ABCEEC00A10EE100A42
:104A6000A4F8F00294F97802401C07D1B4F8EC02E3
:104A7000B4F8EE12A4F8EC12A4F8EE020648B4F86A
:104A8000EC32B4F8EE22B4F8F01204686363036801
:104A90009A630068C1631CBD000600202DE9F04147
:104AA000334C0120334F6071E178002569B1B8784B
:104AB000401CC0B2B870E5702179814202D2152045
:104AC0002070BD706571BDE8F081E070BD70207828
:104AD000001F0F2821D2264800F0AEF8244E70782F
:104AE000042805D2244951F820103046884703E0B5
:104AF00075703046FBF74AFED6EDBA0A96ED9D0A70
:104B00003046C0EE801AD6EDB90A80EE801AD6ED96
:104B1000C10A96EDC00AFFF72FFF2078132825D38E
:104B2000F978884222D012489FED140A84EDB90A20
:104B300084EDBA0A84EDDD0AC4F89853C4F89C5396
:104B400084EDB70A84EDB80A84EDB50A84EDB60A9F
:104B5000D4ED9D0AC0EE201AD4EDC10A94EDC00A2E
:104B6000B0EE611AFFF708FF2078F870E570A9E74A
:104B7000F800002000000020107D00080000000068
:104B8000064810B54079002807D1044800F0ACFA77
:104B9000BDE81040014800F0EBB910BDF80000205E
:104BA00010B5C82902D9C821002201E0002204E082
:104BB000835C3F2B04D0521C92B28A42F8D310BDC2
:104BC000FFF788FCC8210B4B0020024643F8202049
:104BD000401C80B2B0EB910FF8D321F003000344E6
:104BE000002001F0030102E01A54401C80B281420F
:104BF000FAD810BD2C00002010B500F0A3F80C4826
:104C00000078011F0F2904D2BDE810400848FFF7C3
:104C1000D7BC13280BD3074C2079401CC0B220719D
:104C20000A2804D90248FFF7CBFC0020207110BDF0
:104C3000F80000200000002010B504462DED028B86
:104C400001F0BEF984EDDA0AD4EDDD0A94F97C02B4
:104C5000617870EE600A00EE100A04F54470B8EE58
:104C6000C00A20EE800A00F0D5FD94EDCB0A04F1D5
:104C7000980000F0C4FD94ED2D0A84EDD60A94ED61
:104C8000CC8A18EE100A01F097FFC4E9D80194F815
:104C9000700200EE100AB8EE400A28EE000A01F099
:104CA000E7FA84EDDB0A94F8700294EDD61A00EE70
:104CB000900A04F54171081FF8EE600A61EE200ABF
:104CC000C4EDDC0A01F07AFB2046FBF76BFD04F52E
:104CD0006471D4EDE10A94EDE00A081F01F02CFBA9
:104CE00004F55F71D4EDC11A94EDC01AD4EDE40A55
:104CF00094EDE30A081F01F0C1FB94EDDE0A04F114
:104D0000080000F07CFD94EDDF0A04F1500000F093
:104D100076FD94ED090A84EDDE0A94ED1B0A84ED1C
:104D2000DF0ABDEC028B10BD90ED9D2AC0EE821A09
:104D3000F7EE000A80EE021A9FED010AFFF71CBE93
:104D40000000000070B5674C2DED028B2078012823
:104D50007ED1012211466448FCF7F0FE4FF09045E9
:104D6000012202212846FCF7E9FE012204212846FF
:104D7000FCF7E4FE00215D48FEF720FA04215B48C1
:104D8000FEF71CFA08215948FEF718FA3C2158484A
:104D9000FEF70AF8564900200968486201F012F946
:104DA00001F080F9204600F0A9F802202070254685
:104DB00005F10800FEF728FE05F15000FEF724FE7D
:104DC00005F19800FEF720FE05F1E000FFF7D0F9AD
:104DD00005F5A870FFF7CCF904F5E070FFF724FCA7
:104DE00005F5FC70FFF7C4F904F54470FFF7D6FA37
:104DF00004F56870FFF7D8FB032020700025002021
:104E000001F0F6F9D4F898130844C4F89803012087
:104E100001F0EEF9D4F89C130844C4F89C03022076
:104E2000FCF74EFD6D1CEDB2182DE8D3D4F89813A5
:104E3000182091FBF0F1C4F89813D4F89C1391FB5F
:104E4000F0F0C4F89C0394EDA00AB8EE400A00E02C
:104E500044E0D4EDA10A9FED288A224820EE200AE2
:104E6000D4EDA30A20EE200AD4EDA20A80EE801A27
:104E7000DFED200A84EDE51A94ED9D0A20EE200A6C
:104E8000F0EE480AFFF750FF4FF49660FCF718FD6C
:104E90005FF0000501F094F8D4EDDD0A022030EE59
:104EA000200A84EDDD0AFCF70BFD6D1CEDB20A2D26
:104EB000F0D394EDDD0AF2EE040A0A4880EE201ADF
:104EC000B0EE480AF0EE400A84EDDD1AFFF72CFF41
:104ED0004FF44870FCF7F4FC04202070BDEC028B0A
:104EE00070BD0000F800002000040048000600200B
:104EF000980600209A99993E0000000070B504467B
:104F00002DED048B04F5E0749FED179B80ED129B53
:104F100080ED249B80ED369B80ED489B80ED649B6B
:104F200090F8680201F0DAFB0E4646EC180B0546D5
:104F300053EC192B51EC180B01F020FC01F0ACFAEA
:104F400046EC185B206253EC192B51EC180B01F066
:104F500015FC53EC182B01F011FCC4E91E0184ED83
:104F60005E9BBDEC048B70BD2D431CEBE2361A3FFB
:104F7000F0B45B4A002102F108039468641C946059
:104F80000578172D05D1D0F8D052A5427ED20170F8
:104F90001960057804240E2D1AD1D0F8A85296680D
:104FA000B6FBF5F705FB176656B990EDC20AD0EDD2
:104FB000A80AB4EEE00AF1EE10FA01DD0170196002
:104FC000966805EB8505B6EB450F01D904701960AD
:104FD00005780F2D1AD1D0F8A8529668B6FBF5F7D0
:104FE00005FB176656B990EDC20AD0EDA90AB4EEDA
:104FF000E00AF1EE10FA01D201701960966805EB33
:105000008505B6EB450F01D9047019600578102DA0
:105010001AD1D0F8B4529668B6FBF5F705FB1766BF
:1050200056B990EDC30AD0EDAB0AB4EEE00AF1EE4A
:1050300010FA01DD01701960966805EB8505B6EB85
:10504000450F01D9047019600578112D1AD1D0F8D7
:10505000B4529668B6FBF5F705FB176656B990EDA6
:10506000C30AD0EDAC0AB4EEE00AF1EE10FA01D2B8
:1050700001701960966805EB8505B6EB450F01D9FF
:10508000047019600578122D25D100E023E0D0F8D6
:10509000C0529668B6FBF5F705FB17669EB990ED12
:1050A000DE0AD0EDAE0AB4EEE00AF1EE10FA08DC4A
:1050B00090EDDF0AD0EDAF0AB4EEE00AF1EE10FA9F
:1050C00001DD01701960926805EB8505B2EB450FB3
:1050D00001D904701960F0BC0248FFF73BB800002A
:1050E00000000020F800002010B5044600781628C3
:1050F00001D0172801D000287ED016287FD017288D
:105100007DD004287BD3122808D094EDDE0AD4ED9C
:10511000AE0AB4EEE00AF1EE10FA08DC94EDDF0A14
:10512000D4EDAF0AB4EEE00AF1EE10FA01DD122080
:1051300020702078A0F10E01072960D36178012941
:105140005ED0022975D0032959D10D2829D094EDBC
:10515000B60AD4EDB30A30EE600A10EE100A01F080
:105160002BFD94EDD81B53EC112B01F0CBFA12D28E
:1051700094EDB60AD4EDB30A30EE200A10EE100A10
:1051800001F01AFD94EDD81B53EC112B01F0F4FB48
:1051900001D20D2020706078032830D120780B28B0
:1051A00018D094EDB60AD4EDB30A30EE200A10EE12
:1051B000100A01F001FD94EDD81B53EC112B01F006
:1051C000DBFB01D20B2020706078032817D12078F8
:1051D0000C2814D094EDB60AD4EDB30A30EE600A70
:1051E00010EE100A01F0E8FC94EDD81B53EC112BE3
:1051F00001F088FA03D200E001E00C20207010BD1D
:10520000072819D094EDB81AD4EDB10A94EDDF0A4D
:1052100071EE601AF4EEC01AF1EE10FA0AD271EED5
:10522000200AF4EEC00AF1EE10FA03DD0720207028
:1052300002E023E0052812D094EDB80AD4EDB10ABB
:1052400030EE200AD4EDDF0AB4EEE00AF1EE10FAF7
:1052500002DD0520207002E0C0B20628CFD094ED18
:10526000B80AD4EDB10A30EE600AD4EDDF0AB4EE2C
:10527000E00AF1EE10FAC2D20620BFE70A2818D0E1
:1052800094EDB51AD4EDB20A94EDD60A71EE601A17
:10529000F4EEC01AF1EE10FA09D271EE200AF4EE23
:1052A000C00AF1EE10FA02DD0A20207001E00828A1
:1052B00012D094EDB50AD4EDB20A30EE200AD4ED46
:1052C000D60AB4EEE00AF1EE10FA02DD08202070F2
:1052D00002E0C0B2092892D094EDB50AD4EDB20A2A
:1052E00030EE600AD4EDD60AB4EEE00AF1EE10FA20
:1052F00085D2092082E7FCF72DBC00B593B0382198
:105300006846FBF773F814210EA8FBF76FF800202E
:10531000FCF7B2FC0220C101039140210491042159
:10532000CDE9080100905521CDE90A1007900C90B5
:105330000D906846FCF792FF08B172B6FEE70F20A9
:105340000E9003200F9000201090119012900421D5
:105350000EA8FCF73BFE002801D072B6FEE713B0A2
:1053600000BD00000248016841F47001016070470F
:1053700088ED00E00148FDF75FBD00000006002059
:105380000148FDF759BD00004C0600202DE9F0430F
:105390000268264B264D274E274C4FF080499842F5
:1053A00007D0484505D0A84203D0B04201D0A04262
:1053B00003D122F070074A683A43204FDFF880C0DB
:1053C000DFF8808098420DD048450BD0A84209D024
:1053D000B04207D0A04205D0B84203D0604501D00A
:1053E000404503D122F44075CA682A434D6922F032
:1053F00080022A4302608A68C2620A688262984216
:1054000007D0A04205D0B84203D0604501D0404546
:1054100001D109690163012141610169C90703D013
:10542000016921F001010161BDE8F083002C014018
:1054300000040040000800400034014000400140EA
:10544000004401400048014010B501F01F03012154
:10545000046A99408C430462016A9A4011430162D4
:1054600010BD10B5846842EA032224F47F440A4345
:105470002243826010BD00008268034B1A400A4339
:1054800042F00701816070478FFFCFFF2DE9F043A5
:10549000056A026A22F001020262436882691C4CBA
:1054A00025F0020522400C6822F0030214438A68AA
:1054B000194E2A43174D194FDFF864C0DFF8649086
:1054C000A84207D0B04205D0B84203D0604501D011
:1054D000484506D122F00808CA6842EA080222F0CC
:1054E0000402A84207D0B04205D0B84203D06045BC
:1054F00001D0484505D14D6923F440731D438B69A4
:105500002B4343608461496841630262BDE8F083D4
:105510008FFFFEFF002C014000340140004001409D
:105520000044014000480140F0B5056A026A22F0DB
:105530001002026242688369194C1B4E23400C68BA
:1055400023F4407343EA042425F020038D6843EAE2
:105550000513144DA84201D0B04206D1CF6823F004
:10556000800343EA071323F04003A8420AD0B04265
:1055700008D00E4DA84205D00D4DA84202D00D4DC9
:10558000A84207D14D6922F4406242EA85028D6942
:1055900042EA850242608461496881630362F0BD2A
:1055A000FF8FFFFE002C014000340140004001400D
:1055B0000044014000480140F0B5056A026A22F447
:1055C000807202624368C269194C1B4E22400C680B
:1055D00022F00302144325F400728D6842EA05228A
:1055E000144DA84201D0B04206D1CF6822F4006227
:1055F00042EA072222F48062A8420AD0B04208D0D0
:105600000E4DA84205D00E4DA84202D00D4DA84225
:1056100007D14D6923F4405343EA05138D6943EAEA
:1056200005134360C4614968C1630262F0BD0000B4
:105630008FFFFEFF002C014000340140004001407C
:105640000044014000480140F0B5056A026A22F4B6
:10565000805202624268C369194C1B4E23400C6899
:1056600023F4407343EA042425F400538D6843EA8D
:105670000533144DA84201D0B04206D1CF6823F4BF
:10568000004343EA073323F48043A8420AD0B042E0
:1056900008D00E4DA84205D00D4DA84202D00D4DA8
:1056A000A84207D14D6922F4404242EA85128D6931
:1056B00042EA85124260C461496801640362F0BD38
:1056C000FF8FFFFE002C01400034014000400140EC
:1056D000004401400048014030B5056A026A22F4E6
:1056E000803202624268036D114C23400C681C43F7
:1056F00025F400330D8943EA05430E4DA8420BD033
:105700000D4DA84208D00D4DA84205D00C4DA84221
:1057100002D00C4DA84204D14D6922F4803242EAF5
:1057200005224260046549688164036230BD00005F
:105730008FFFFEFF002C014000340140004001407B
:10574000004401400048014030B5046A026A22F476
:10575000801202624268036D114D24F400142B4044
:105760000D6843EA05230D8944EA05540D4DA8420E
:105770000BD00D4DA84208D00C4DA84205D00C4DC1
:10578000A84202D00B4DA84204D14D6922F48022D8
:1057900042EA8522426003654968C164046230BD03
:1057A000FF8FFFFE002C014000340140004001400B
:1057B000004401400048014010B5036A046A24F027
:1057C00001040462846924F0F00444EA021423F022
:1057D0000A020A438461026210BD10B5036A046ABA
:1057E00024F010040462846923F0A00324F47044BC
:1057F00044EA023243EA01118261016210BD80ED88
:10580000060AFEF78FB980ED060AC0ED070AFEF71B
:105810001DBD000010B504462DED028BB0EE408A90
:1058200090ED080A032926D038EE400A84ED060AD6
:1058300094F8400010B1002084F8400094ED060A6E
:10584000134910EE100ADFED130A884203DB30EE35
:10585000600A84ED060A10EE100A0F49884203D34D
:1058600030EE200A84ED060A2046BDEC028BBDE82E
:105870001040FEF7F9BD00F0FBFC38EE400A84ED65
:10588000060A94F840000028D8D10120D4E700008F
:10589000DB0F4940DB0FC940DB0F49C080ED030A35
:1058A000C0ED040AFEF7D2BE30B5416EB9B1026850
:1058B00091689268C1F342610B4B520F9C5CE5000A
:1058C00003F10804A25CB5FBF2F2A0F86A205A5C6E
:1058D000615CD200B2FBF1F1A0F8681030BD01218B
:1058E000A0F86A10F8E70000387D000890F828104A
:1058F000090706D501684A68836B22F400421A43FF
:105900004A6090F82810C90706D001684A68C36A3F
:1059100022F400321A434A6090F82810890706D50D
:1059200001684A68036B22F480321A434A6090F897
:105930002810490706D501684A68436B22F4802283
:105940001A434A6090F82810C90606D501688A688B
:10595000C36B22F480521A438A6090F8281089069B
:1059600006D501688A68036C22F400521A438A60E3
:1059700090F82810490611D501684A68436C22F452
:1059800080121A434A60416CB1F5801F06D101684C
:105990004A68836C22F4C0021A434A6090F82810C7
:1059A000090606D501684A68C06C22F40022024349
:1059B0004A6070472DE9F84300260446C0F890601D
:1059C000FCF7C2F88046206800684FF02005000709
:1059D0006FF07E4713D543460022290420460097E6
:1059E00000F092FA58B1216851E8000F20F08000D1
:1059F00041E80002002AF6D1C4F8885021E020686E
:105A00000068400722D5434600224FF4800120461B
:105A1000009700F079FAC8B1216851E8000F20F42E
:105A2000907041E80002002AF6D12068083050E862
:105A3000001F21F0010140E80012002AF5D1C4F84E
:105A40008C5084F884600320BDE8F883C4F8885043
:105A5000C4F88C5044F86C6F666026760020F3E73B
:105A600010B5806A0021A0F85E10FDF7F4FC10BDAF
:105A700070B5846AD4F88800D4F88C50216889689D
:105A80004FF00006090606D5212804D1A4F8566077
:105A9000204600F093F820688068400606D5222D45
:105AA00004D1A4F85E60204600F05EF8D4F89000BF
:105AB00040F01000C4F890002046FDF7CCFC70BD0B
:105AC00010B50146806A096809684FF0000289062E
:105AD0002DD4A0F85E20036853E8001F21F48071E4
